:020000040800F2
:10000000A84000202902000831020008330200083D
:10001000350200083702000839020008000000001D
:100020000000000000000000000000003B0200088B
:100030003D020008000000003F02000841020008E5
:10004000430200084302000843020008430200087C
:10005000430200084302000843020008430200086C
:10006000430200084302000843020008430200085C
:10007000430200084302000843020008430200084C
:10008000430200084302000843020008430200083C
:10009000430200084302000843020008430200082C
:1000A000430200084302000843020008430200081C
:1000B000430200084302000843020008430200080C
:1000C00043020008430200084302000843020008FC
:1000D00043020008430200084302000875040008B8
:1000E00043020008430200084302000843020008DC
:1000F00043020008430200084302000843020008CC
:1001000043020008430200084302000843020008BB
:1001100043020008F10300084302000843020008FC
:10012000430200084302000843020008430200089B
:10013000430200084302000843020008430200088B
:10014000430200084302000843020008430200087B
:10015000430200084302000843020008430200086B
:10016000430200084302000843020008430200085B
:10017000430200084302000843020008430200084B
:10018000430200084302000800F002F800F03CF8C7
:100190000AA090E8000C82448344AAF10107DA45E2
:1001A00001D100F031F8AFF2090EBAE80F0013F0F8
:1001B000010F18BFFB1A43F0010318477C0A000027
:1001C0009C0A0000103A24BF78C878C1FAD85207B8
:1001D00024BF30C830C144BF04680C6070470000C1
:1001E0000023002400250026103A28BF78C1FBD840
:1001F000520728BF30C148BF0B6070471FB500F0E1
:1002000015FD1FBD10B510BD00F02FF81146FFF70A
:10021000F5FF00F0D9FC00F04DF803B4FFF7F2FF52
:1002200003BC00F055F80000094880470948004722
:10023000FEE7FEE7FEE7FEE7FEE7FEE7FEE7FEE796
:10024000FEE7FEE704480549034A054B70470000F6
:100250009503000889010008A8380020A840002064
:10026000A8380020704770477047754600F02CF89A
:10027000AE4605006946534620F00700854618B093
:1002800020B5FFF7DFFFBDE820404FF000064FF03C
:1002900000074FF000084FF0000B21F00701AC46BB
:1002A000ACE8C009ACE8C009ACE8C009ACE8C009DA
:1002B0008D46704710B50446AFF300802046BDE878
:1002C0001040FFF7AABF0000004870473828002000
:1002D00001491820ABBEFEE726000200704700006F
:1002E0000CB50022274900920192086840F4803042
:1002F00008604FF4A043086800F4003001900098B3
:10030000401C0090019810B900989842F3D10868F9
:10031000800334D5012001901A484030026842F031
:10032000805202601848026842F440420260154858
:10033000083002680260026842F40042026002680B
:1003400042F4A0520260031F104A1A600A6842F089
:1003500080720A600A689201FCD50D4940F205726C
:100360000A60016821F003010160016841F00201A7
:1003700001600168C1F381010229FAD10CBD01922B
:100380000CBD0000003802400070004008544007D7
:10039000003C0240124810B5016841F47001016050
:1003A0001048016841F0010101600E4A0021083245
:1003B000116002680C4B1A400260031D0B4A1A6060
:1003C000026822F48022026006480C300160FFF7C8
:1003D00087FF03494FF000608039086010BD0000BE
:1003E00088ED00E000380240FFFFF6FE10300024E8
:1003F0002DE9F0411A480188C9062FD5808819488F
:100400004069194FC0F5A0564FF001083868864280
:1004100009D900F0C7FA154A396802EBC102711A0E
:10042000C0E9012117E00024114D10494FF4A052FA
:1004300003E00B5C2B55401C641C9042F9D3002058
:1004400003E00A5C2A55401C641CB042F9D300F05A
:10045000A9FAC0E9015480F800803E60BDE8F0814F
:10046000005000400060024000000020900000208A
:1004700090140020F0B513480088C00620D511481C
:10048000001D00881048C06A104DC0F5007429682E
:100490008C4214D80E4B0020A3F500724FF4007666
:1004A00003E0575C1F54401C491CB142F9D30021A2
:1004B00003E0565C1E54401C491CA142F9D32C6039
:1004C000F0BD000000480040006002400400002031
:1004D000381700202DE9F047104F05464FF001086E
:1004E00002264FF000093868C10301D544460AE0EE
:1004F000C10605D4810603D4410601D4000601D506
:10050000344600E04C46012C04D10A2000F008F8E3
:100510006D1EE8D12046BDE8F08700000C3C02408B
:10052000034900220A600A688242FCD97047000031
:10053000244401402DE9F041054600F033F800283D
:100540002AD000F017FA296800F0F6F900244FF4D9
:1005500080574FF48068114E10E000F019F93B46C7
:100560000F4A04F5204100F029F900F003FA434650
:100570000B4AA11900F0BAF904F580542868A0428A
:10058000EBD800F005F94FF4104100F05FF8284671
:10059000BDE8F04100F006B8BDE8F0810040000879
:1005A000381800203EB5044600F0F2F804236A46ED
:1005B0004FF4104100F002F99DF803009DF800107F
:1005C0009DF8022000EB01609DF80110090401EB89
:1005D0000221084418A12060D1E90001CDE9010100
:1005E0009DF800008DF805009DF801008DF80600CB
:1005F0009DF802008DF807009DF803008DF80800B3
:100600000F480078C00709D10D4800F0D5FA28B18D
:100610000C4800F085FA0A48AFF30080094806222A
:1006200001A900F065FA2068401EB0F5C82F01D27C
:1006300001203EBD00203EBDE100000000EF0000B3
:1006400020000020240000207047000030B50C4638
:10065000054600F021F80F4840230380202128465A
:1006600000F03AF8C4F30741284600F035F8C4F327
:100670000721284600F030F8E1B2284600F02CF8B7
:100680000448801E0380284600F014F8C007FAD101
:1006900030BD00001A040240054900B540230B801C
:1006A000062100F019F80248801E038000BD0000FA
:1006B0001A04024010B50749402304460B80052167
:1006C00000F00AF8FF21204600F006F80149891ED3
:1006D0000B8010BD1A040240064802889207FCD520
:1006E000044A121D11800188C907FCD01088C0B2CD
:1006F00070470000083C00402048016841F00201BA
:1007000001601F48016821F47F510160016841F4D4
:10071000D45101601A480C30016821F47F51016006
:10072000016841F4AA510160001F016841F47F5142
:100730000160001F016821F078010160104820303D
:100740000168104A1140016001680F4A11430160BD
:100750000A481030016841F4004101600B49002053
:1007600008800A4A1C3210800A1D10804FF4517014
:100770000880034940201831088070473038024013
:1007800000040240FF0F00FF00606600003C0040D4
:10079000084810B50078C00709D1064800F00CFAE7
:1007A00028B1054800F032F80248AFF30080024853
:1007B00010BD00001000002098280020F0B506466B
:1007C0001148402514460F46058003213046FFF7A7
:1007D00083FFC7F307413046FFF77EFFC7F30721CA
:1007E0003046FFF779FFF9B23046FFF775FF05E0B5
:1007F000FF213046FFF770FF04F8010B5B1EF7D2B4
:100800000148801E0580F0BD1A04024000B5034671
:10081000FFF772FF184600BD70B515460E46FF2063
:10082000FFF758FE002816D10B4C206820F44070CA
:100830002060206840F400702060206840F00100D3
:1008400020603560FF20FFF745FE012803D02068B7
:1008500020F00100206070BD103C02402DE9F04105
:100860001F480E461D4901601E490160051F28688A
:1008700020F4806028601C4F3846FFF72BFE184C90
:100880000C3400BB206820F440702060206840F4E5
:1008900000702060206820F0F8002060206840EAA6
:1008A000C6002060206840F002002060206840F40C
:1008B000803020603846FFF70DFE012803D0206805
:1008C00020F002002060286840F4806028602068E2
:1008D00040F000402060BDE8F08100002301674542
:1008E000043C0240AB89EFCD400D03002DE9F041FF
:1008F00080460F480D460D491E46174601600D49BA
:100900000160002407E057F8242029464046FFF7FD
:1009100083FF641C2D1DB442F5D305480C300168DB
:1009200041F000410160BDE8F0810000230167450E
:10093000043C0240AB89EFCD70B50C460546012161
:10094000FFF78CFFB4F5804F03D902212846FFF74B
:1009500085FFB4F5004F03D903212846FFF77EFF3A
:10096000B4F5404F05D92846BDE870400421FFF793
:1009700075BF70BD084810B50078C00709D106489A
:1009800000F01AF928B1054800F00AF80248AFF360
:100990000080024810BD0000140000201800002054
:1009A00070470000084810B50078C00709D1064814
:1009B00000F002F928B1054800F00AF80248AFF348
:1009C0000080024810BD00001C0000209838002064
:1009D0003F4A10B5116841F00C0111603D490B68A8
:1009E00023F040730B600B6843F000730B603949D0
:1009F0000C310B6823F040730B600B6843F080737D
:100A00000B60091F0B6843F040730B60091F0B68F4
:100A100023F480530B602F4924310B6823F4702397
:100A20000B600B6843F400230B602B490B6823F029
:100A300030030B600B6843F020030B6026490C3138
:100A40000B6823F030030B600B6843F010030B605E
:100A5000091F0B6843F030030B60091F0B6823F07C
:100A600004030B601C4920310B6823F470630B6096
:100A70000B6843F400630B60154910310B6843F4B5
:100A800080130B60154900238B810B8240248C82DC
:100A900041F217140C8142F21C048C81116841F45C
:100AA000001111600E493F228A600B610D4ACA6134
:100AB0000A4A121D8A614FF4A0524A610A4A0A6129
:100AC0000A4A4FF40011C2F80011037010BD000073
:100AD0003038024000080240000C02400050004044
:100AE00000600240900000200105020804E000E0E0
:100AF00030B514460B46054604E013F8011B2846A2
:100B000000F004F8641EF8D230BD000003480288EB
:100B10001206FCD50148001D0180704700480040C6
:100B200022490A6842F002020A60204A1032136821
:100B300043F4802313600A6842F400120A601C49DF
:100B40000A6822F470020A600A6842F420020A600D
:100B500017490C310A6822F470020A600A6842F4EC
:100B6000A0020A60091F0A6842F420020A60091FF5
:100B70000A6822F440620A600D4924310A6822F4AE
:100B80007F420A600A6842F4EE420A60094A002184
:100B90001180131D19801B1D1980131F41F217119D
:100BA000198042F20801118070470000303802407D
:100BB000000402400C480040016809B10020704761
:100BC0000121016008467047134810B50078C0073E
:100BD00009D11148FFF7F0FF28B11048FFF7A0FF37
:100BE0000D48AFF300800E480078C00709D10C48CB
:100BF000FFF7E2FF28B10B48FFF726FD0848AFF3E7
:100C000000800848FFF796FC07490868496880F3A8
:100C100008888847002010BD200000202400002004
:100C2000080000200C000020004000084FF0407039
:100C3000E1EE100A70470000580C00080000002088
:100C400028000000C4010008800C000828000020D3
:100C500080400000E00100080000000000000000EB
:100C60000000000000000000000000000000000084
:100C70000000000000000000000000000000000074
:040000050800018965
:00000001FF
